:020000040800F2
:100000000825002001010008BB480008DD3D00086C
:10001000B9480008E1120008536D00080000000014
:100020000000000000000000000000006352000813
:10003000E313000800000000B94B000865520008F7
:100040001B0100081B0100081B0100081B01000820
:100050001B0100081B0100081B0100081B01000810
:100060001B0100081B0100081B010008A113000868
:100070001B0100081B0100081B010008AD1300084C
:100080001B0100081B0100081B0100081B010008E0
:10009000DD6C00081B0100081B0100081B010008A3
:1000A0001B0100081B0100081B0100081B010008C0
:1000B0001B0100081B0100081B0100081B010008B0
:1000C0001B0100081B0100081B0100081B010008A0
:1000D0001B010008C95600081B0100081B0100088D
:1000E0001B0100081B0100081B010008DFF80CD0F1
:1000F00000F0DAFD004800475D9800080825002060
:100100000648804706480047FEE7FEE7FEE7FEE7B1
:10011000FEE7FEE7FEE7FEE7FEE7FEE7D95200084E
:10012000ED000008202A04DB203A21FA02F0002129
:10013000704721FA02F3D040C2F1200291400843F7
:100140001946704740EA01039B0703D009E008C93C
:10015000121F08C0042AFAD203E011F8013B00F88C
:10016000013B521EF9D27047D2B201E000F8012BD8
:10017000491EFBD270470022F6E710B513460A4627
:1001800004461946FFF7F0FF204610BD421C10F848
:10019000011B0029FBD1801A704710B5002200E036
:1001A000521C835C8C5CA34201D1002BF8D1D8B2E5
:1001B000E1B2401A10BD000070B50F4D00B92868BB
:1001C000002412E00A4602E09E4203D0521C13783B
:1001D000002BF9D1DAB2224305D02BB124B1002192
:1001E00000F8011B04E00446401C0678002EE9D10B
:1001F0002860204670BD00002003002070B5064630
:1002000006F0E0FD046805460A220021304600F0B1
:10021000FFFB2C6070BDF0B480EA0102D40F4200F5
:10022000B2EB410F02D20246084611464A0042D0C4
:10023000C30DDDB2C1F3C752AD1A202D35DAC1F3BB
:10024000160141F4000204B15242C5F1200602FA3F
:1002500006F12A411044B3EBD05F23D0C4B1012D85
:10026000A0EBC35009DCF0BC4FF0004202EAC352DD
:10027000DBB200F5000000F00CBC400000F1807023
:1002800000EBC350A0F1807040EAD170490009E052
:10029000490841EAC071A0EBC35000F500004008D6
:1002A00000EBC350F0BC00F0EBBB6142012202EB5B
:1002B0004101001BF6E7F0BC704781F00041AAE75E
:1002C00080F00040A7E780EA010210B502F0004389
:1002D000400022D04A001FD0010E01EB1261C0F392
:1002E0005600C2F3560240F4000042F40002A0FBA4
:1002F000022000047F39140400D0401C50EA124050
:1003000001D44000491EC2B20C0604EBD010401CC0
:100310004008802A02D003E0002010BD20F0010038
:10032000002900DA0020184310BD30B480EA010231
:1003300002F0004530F0004221F0004013D090B1AF
:10034000C30DD40DC2F31601C0F31600E41A41F434
:10035000000140F400027D34914201D3641C00E0AE
:100360004900002C02DA30BC002070474FF4000036
:100370000023914201D3891A034340084FEA410107
:10038000F7D151B1914202D14FF0004105E002D2C4
:100390004FF0010101E06FF0010103EBC45028446C
:1003A00030BC00F06DBB420005D0C0F3C7525242D2
:1003B000914201DC0020704700EBC15070472DE9ED
:1003C000FE4F804681EA0300C00F0C46009021F0EA
:1003D000004123F00045B8EB0200A94105D2404698
:1003E000214690461C460B46024623F0004010432F
:1003F00047D0270DC7F30A00C3F30A510290401AF1
:10040000019040286BDAC3F3130040F4801B00987E
:10041000924620B10023D2EB030A63EB0B0B019849
:100420005946C0F14002504600F083FA06460D4698
:1004300050465946019A00F08BFA10EB08006141D2
:10044000002487EA115284EAE7731A4340D0009AE5
:1004500062B3019A012A4FEA075215DC001B61EBD7
:1004600002014FF0004202EA0752CDE90042001CAF
:1004700041F5801132462B4600F048FB03B0BDE841
:10048000F08F40462146F9E7001B61EB0201001C9A
:1004900041F5801300185B412018A2F5001747EBC7
:1004A000030140EAD570B6196D4111E06D084FEABD
:1004B000360645EAC0754FEA0752001B61EB0201A0
:1004C000001C41F5801149084FEA300000195141E4
:1004D00032462B4603B0BDE8F04F00F008BB009851
:1004E000012240000023D0EB020263EBE07300988E
:1004F00021464FEAE074B8EB000061EB0401E9E744
:1005000083F000435BE781F0004158E72DE9FE4F9F
:1005100081EA030404F0004421F0004100944FF00C
:10052000000B23F0004350EA01045ED052EA0304BA
:100530005BD0C3F30A54C1F30A552C44A4F2F3343C
:100540000194A0FB0254C1F3130141F48011C3F3E1
:10055000130343F4801301FB024400FB034E840A9F
:10056000970A44EA815447EA8357A4FB0768029537
:100570008D0A05FB07854FEA932C04FB0C542705D5
:10058000029D4FEA065847EA1637B5EB08056EEBB1
:10059000070C870E920E47EA811742EA8312A7FBE7
:1005A0000201B6EB0B0164EB00042B0D43EA0C33A4
:1005B0005E1844EB1C50DA465146E7FB0201C5F3D6
:1005C00013044FEA0B3343EA14534FEA0432019CFD
:1005D00043EA0603A4F10C040294009CCDE900B4A4
:1005E00000F094FA03B0BDE8F08F00200146F9E76F
:1005F0002DE9F04D81EA030404F0004B21F00045A1
:1006000014464FF0000A23F0004150EA050220D0C2
:1006100054EA01021DD0C5F30A570246C5F313037D
:10062000C1F31300C1F30A5640F4801543F480135C
:10063000A7EB0608101BD64608F2FD3873EB050041
:1006400002D308F1010801E092185B41B8F1000FF4
:1006500003DA00200146BDE8F08D00204FF4801140
:10066000064684460EE0171B73EB050705D3121BE5
:1006700063EB050306434CEA010C49084FEA3000DE
:1006800092185B4150EA0107EDD152EA030012D003
:1006900082EA040083EA0501084305D0101BAB4140
:1006A00006D20122002306E000224FF0004302E0C0
:1006B0006FF0010253101AEB06004CEB085110EBDF
:1006C0000A0041EB0B01BDE8F04D00F010BAC10F7C
:1006D00080EAE0700844CA079623002100F0D9B9E7
:1006E00096230022114600F0D4B90EB5C10F80EA5E
:1006F000E0700844CA07002140F233438DE80E0041
:100700000A460B4600F002FA03B000BD0EB540F2F7
:10071000334102910021CDE900110A460B4600F059
:10072000F5F903B000BD00F0004220F00040C10D1B
:10073000C0F3160040F400007F2901DA0020704762
:10074000962903DCC1F19601C84001E09639884042
:10075000002AF4D04042704720F00040C10DC0F3A1
:10076000160040F400007F2901DA00207047962926
:1007700003DCC1F19601C840704796398840704744
:1007800070B5C1F30A5201F000450024C1F3130112
:1007900040F2FF3341F480119A4201DA002070BD2B
:1007A00040F233439A42A2F2334203DC5242FFF753
:1007B000B9FC00E090402C43F1D0404270BD00F005
:1007C000004230F000400AD0C10D01F56071C0F365
:1007D000160042EA0151C208400711437047002049
:1007E0000146704730B5041E71F1000404DB4FF080
:1007F0000044404264EB0101141E73F1000405DB68
:100800001C464FF00043524263EB04038B4208BF87
:10081000824230BD30B5041E71F1000404DB4FF09C
:100820000044404264EB0101141E73F1000405DB37
:100830001C464FF00043524263EB0403994208BF49
:10084000904230BD01F0004330B421F0004150EA45
:10085000010206D00A0DA2F56072C1F31301002A4D
:1008600002DC30BC00207047440F44EAC104C100E0
:10087000E01830BC00EBC25000F002B9002801DBE8
:10088000C0F10040002901DBC1F100418142704705
:10089000002801DBC0F10040002901DBC1F100416B
:1008A0008842704730B50B460146002020220124C3
:1008B00009E021FA02F59D4205D303FA02F5491B2E
:1008C00004FA02F52844151EA2F10102F1DC30BD44
:1008D0002DE9F05F0546002092469B468846064675
:1008E000814640241BE02846414647462246FFF702
:1008F00019FC53465A46C01A914110D31146184666
:10090000224600F016F82D1A67EB01084F462246E2
:100910000120002100F00DF817EB00094E41201EC8
:10092000A4F10104DFDC484631462A464346BDE8CF
:10093000F09F202A04DB203A00FA02F100207047E1
:100940009140C2F1200320FA03F31943904070470D
:10095000202A06DBCB17203A41FA02F043EAE07383
:1009600006E041FA02F3D040C2F120029140084370
:10097000194670470FB4002300B589B00CA9009147
:100980000B996FF00042CB601E4B06931E4B0793F2
:100990000423CDE901321D4A089202466B4600202D
:1009A00000F036FA09B05DF814FB70B586B0064663
:1009B0004FF0FF300091CDE90101002015460C46B3
:1009C00004903246694604A8FFF7D4FF0246049813
:1009D000211825B108B1084600E020462860049897
:1009E00000280DD0002A02DD0098884208D0081B9C
:1009F0000094CDE901043246694604A8FFF7BAFF26
:100A000006B070BD4910000867100008D50C00083A
:100A10002DE9F04791460F4680460446002614F81B
:100A2000015B2DB100F052F90068405DC007F6D1BE
:100A30002B2D02D02D2D18D0641E4A463946204653
:100A400000F022FB27B13968A14201D1C7F800802C
:100A500071054FF002040BD54042002803DD06F07B
:100A6000B1F90460A007BDE8F08746F48066E4E7CA
:100A70000028F8DA06F0A6F904606FF00040F2E70B
:100A80000029A8BF7047401C490008BF20F00100A2
:100A9000704710B4B0FA80FC00FA0CF050EA010480
:100AA00004BF10BC704749B1CCF1200421FA04F412
:100AB00011FA0CF118BF012121430843A3EB0C01EB
:100AC000CB1D4FEA00614FEA102042BF002010BC4E
:100AD000704700EBC35010440029A4BF10BC7047FE
:100AE000401C490008BF20F0010010BC704710B541
:100AF000141E73F1000408DA401C41F10001921841
:100B00005B411A4301D120F0010010BD2DE9F04DE9
:100B100092469B4611B1B1FA81F202E0B0FA80F23E
:100B200020329046FFF705FF04460F4640EA0A00D0
:100B300041EA0B0153465A46084313D0114653EA83
:100B4000010019D0C8F140025046FFF7EBFA054604
:100B50000E46504659464246FFF7EBFE084305D085
:100B6000012004E020463946BDE8F08D0020054311
:100B700046EAE0762C4337430A986305E40AA0EB83
:100B800008000022FD0A44EA47540A3002D500203A
:100B90000146E9E7010510196941DDE90845001939
:100BA0006941BDE8F04DA2E770B521F00043034371
:100BB0000CD0C1F30A550024D5EB040564EB040303
:100BC000D617AD1AB34102DB0020014670BD2018D4
:100BD00041EB025170BD2DE9F04D00231A461B1A5E
:100BE0008A4103DB00200146BDE8F08DC1F30A52C3
:100BF000C1F3130141F480154FF0000BD10702D16E
:100C000000186D41521E0027044640F2FF1138467D
:100C100001EB620A3E468046024600204FF48011F6
:100C2000FFF780FAC2197141BB1846EB0100B4EB23
:100C3000030C75EB000C04D3E41A65EB00051746B2
:100C40000E46241908F101006D4180463428E3DD89
:100C5000F91946EB0600091BA84103D24FF0FF32F9
:100C6000134601E0002213461BEB070046EB0A5136
:100C7000BDE8F04DFFF73BBFC1F30A52C1F31301CA
:100C800040F2FF3341F480119A4202DA002001461B
:100C9000704740F233439A42A2F2334202DC52429E
:100CA000FFF740BAFFF745BE064C074D06E0E06887
:100CB00040F0010394E8070098471034AC42F6D3A3
:100CC000FFF718FA789E0008989E000800487047C1
:100CD0006C9E000810B50446FFF7F8FF0068005D41
:100CE00000F0010010BD00002DE9FF4F087883B02F
:100CF0009946FF2805D0491C2D2804D00024002047
:100D000008E000200BE00124F9E700EB800003EB92
:100D10004000491C0B78FF2BF7D104B1404200235F
:100D20000293147819461D462D2C01D02B2C04D18A
:100D3000521C2D2C13D000240294AA461478FF2CA8
:100D40000FD00A25A3FB057801FB05814FF0000CAD
:100D500003FB0C11521CE3194AEB0101EEE70124DD
:100D6000EAE7814453EA010002D019F5C87F06DAA8
:100D700003980021C0E9001107B0BDE8F08F0025FD
:100D8000AE4E2F46DFF8B882184600F0DAF9CDE90A
:100D90000001B9F1000002DAC9F1000400E00446E4
:100DA0000023A74A1AEB030B42EB045A12E0E007B8
:100DB00007D02A46334638464146FFF7A7FB074689
:100DC00088462A46334610461946FFF79FFB0546DC
:100DD0000E466410002CEAD1DDE90001B9F1000FE4
:100DE0005A46534606DAFFF703FC3A464346FFF7F6
:100DF000FFFB05E0FFF78AFB3A464346FFF786FB19
:100E0000029A0AB181F00041039AC2E90001B3E7F6
:100E10002DE9FF4F1F468DB0D7E901464FF0FF384F
:100E20002E2045464FF000090B90B9696D1C0E98B5
:100E30008847396A824688470028F6D1BAF1FF3FD1
:100E40000AD024F4D064002E11DDBAF12B0F08D0A3
:100E5000BAF12D0F0BD102E0404611B08DE744F4FA
:100E60008064B9696D1C0E9888478246761E694673
:100E7000600501D52D2000E02B208DF8000001F148
:100E8000010B0DF1200809E0B9696D1C0E98884727
:100E900082460F9844F40074761E0560002E02DD31
:100EA000BAF1300FF0D00B998A453ED144F080045E
:100EB00006E00F99681CA9F1010944F40074086068
:100EC000B9696D1C761E0E98884782463028F0D08E
:100ED0002BE00B998A4505D1200603D444F0800409
:100EE000761E18E0504606F0AFFC08B30DF1130172
:100EF000761E44F400748B4508D2AAF130000BF83A
:100F0000010B200607D5A9F1010003E0200602D459
:100F100009F101008146A00502D50F99681C0860FF
:100F2000B9696D1C0E9888478246002ED1DC53E0CB
:100F3000002E51DDBAF1650F02D0BAF1450F4BD149
:100F4000A00549D5B9696D1C24F44074761E0E982D
:100F500088478246002E0CDD2B2804D0BAF12D0FD5
:100F600007D144F48074B9696D1C0E988847824695
:100F7000761EE00501D52D2100E02B2108F8011B8C
:100F8000CDF82C8021E00DF12901761E44F4007487
:100F900088450CD2AAF1300010F0FF0088F800005C
:100FA00002D10B99884509D908F1010806E0E0054E
:100FB00001D5244801E042F20F708146B9696D1CE9
:100FC0000E98884782460F980560002E04DD504633
:100FD00006F03AFC0028D6D1F9690E988847FF2020
:100FE0008BF8000088F800000020069007904B4620
:100FF0006A4608A906A8FFF777FEA00502D46FF09D
:1010000001002AE714F0240F0AD0E00714D1DDE92B
:1010100006123868031D3B600068C0E900120BE04F
:10102000DDE90601FFF70EFC0146E00704D1386850
:10103000021D3A600068016028460EE70000144077
:101040000000F03FF1D8FFFF426842B1016811F89B
:10105000013B23B1521EC0E900121846704701211E
:10106000C160881E704742685AB1C368016843B9BD
:1010700083688B4205D0491E521CC0E90012002033
:1010800070474FF0FF3070472DE9F05F82460078DF
:10109000002715468B460AF10104B946302801D0D5
:1010A0009DB113E014F8010B0127782803D05828CC
:1010B00001D045B10AE00DB1102D07D10027102550
:1010C00014F8010B02E0082500E00A250026B046CE
:1010D0000EE005FB080005FB06F1012701EB1046B9
:1010E0001FFA80F8B6F5803F00D3B94614F8010B1B
:1010F000294600F018F80028EBDABBF1000F05D004
:101100000FB1641E00E05446CBF80040B9F1000F67
:1011100006D005F057FE02210160C81EBDE8F09F11
:1011200048EA0640FAE73A2800D2303820F0200298
:10113000412A01D3A2F13700884201D34FF0FF309A
:1011400070470EB540F2334202920022CDE90022F0
:101150001346FFF7DBFC03B000BD70B58C1810F828
:10116000015B15F0070301D110F8013B2A1106D1EC
:1011700010F8012B03E010F8016B01F8016B5B1E06
:10118000F9D12B0705D40023521E0DD401F8013BE1
:10119000FAE710F8013BCB1A921C03E013F8015B4D
:1011A00001F8015B521EF9D5A142D8D3002070BDD1
:1011B00070B5044600688168C943C9071CD18168BD
:1011C00021F00101816000F051FD05460FE000BFF4
:1011D00000F04CFD401B022809D9A06A40F0100025
:1011E000A062E06A40F00100E062012070BD20686A
:1011F0008068C043C007EBD0002070BD10B5014629
:10120000406A826A12F0500F05D0006A026BBDE896
:10121000104008461047816A41F4007181620168FC
:101220008968C1F3424107290CD1017B51B9816A18
:1012300021F480718162816AC90403D4816A41F01A
:101240000101816200F04EF910BD10B5406A816A5B
:1012500041F040018162C16A41F00401C16200F0C5
:1012600043F910BD10B5406A00F03DF910BD000013
:10127000F8B500260446009600688168C943C9078E
:1012800028D0816841F0010181601348134900684A
:10129000B0FBF1F000E0401E00900028FBD100F010
:1012A000E5FC054611E000BF00F0E0FC401B022811
:1012B0000BD9A06A40F01000A062E06A40F0010083
:1012C000E06284F824600120F8BD20688068C04393
:1012D000C007E9D10020F8BD0802002040420F00FD
:1012E000FEE70020704700207047000010B5002284
:1012F0000449054804F0E0FA0449034804F0D6FA2A
:10130000002010BDA01800206C060020A0100020B6
:1013100070B5114C0D4600221146104B666801E075
:101320009954521CB242FBD32D6865602170002293
:1013300005E02678815C9955761C2670521CAA42DD
:10134000F7D30146064804F0B1FA054804F092FAD2
:1013500001206070002070BDE40100203C100020DE
:101360006C06002070B50C460A46054601460A4840
:10137000FEF7E8FE0948D0F8B812D1F8140208B117
:10138000012070BD22462946044804F095FABDE8C4
:101390007040024804F0EEBAA01000206C06002055
:1013A000014800F04BBA0000E4050020014800F0BD
:1013B00045BA00002806002030B590F840500124BE
:1013C000AC40C56B6C60046863604368102B0368B5
:1013D00003D099600068C26030BD9A600068C16047
:1013E00030BD704770470000F8B50024009490F8B5
:1013F00024202546012A12D0012280F824204A68A0
:101400001F23072A0DD20668776B521E02EB820259
:1014100093409F430B6893401F43776319E002207A
:10142000F8BD06680D2A0AD2376BD21F02EB820282
:1014300093409F430B6893401F43376309E0F76A6B
:101440000D3A02EB820293409F430B6893401F4387
:10145000F7620A68072306680A2A0AD3F7680A3A75
:1014600002EB420293409F438B6893401F43F76017
:1014700008E0376902EB420293409F438B68934038
:101480001F4337610A68102A01D0112A20D1124B5C
:1014900002689A4217D193681B0219D4936843F4E7
:1014A000000393600968102912D10C490C4A09689D
:1014B000B1FBF2F101EB8101490000E0491E00910E
:1014C0000029FBD104E0816A41F0200181620124FE
:1014D00080F824502046F8BD002401400802002076
:1014E00040420F0070477047704700002DE9F041FF
:1014F0004FF0000704003D467ED0A06A002628B9C0
:10150000E66284F82460204600F07EF82046FFF76B
:101510004FFEA16AC90600D420B1A06A40F01000B5
:10152000A06269E0A16A21F4885141F00201A16240
:101530006268E169237B0A4347EA43010A43A168E1
:101540004FF48077B94209D0012907D05FF000013C
:1015500094F814C0BCF1010F02D00AE03946F7E755
:10156000F3B1A36A43F02003A362E36A43F00103EB
:10157000E3622368D3F804C02CF4694C4CEA010CF4
:10158000C3F804C021688B68DFF870C003EA0C035D
:1015900013438B60A168B9420BD0012909D00CE03C
:1015A000DFF85CC0A3690CEB43330B4343F40061E9
:1015B000DFE7218A0D05A5F580152168CB6A23F4A4
:1015C00070032B43CB62216889680E4B194091420E
:1015D00008D1E662A16A21F0020141F00101A16295
:1015E000BDE8F081A06A20F0020040F01000A06287
:1015F000E06A40F00100E0620120F1E7FDF7E1FF61
:1016000000E0FFFFFE0E1FFF70B586B00026054606
:10161000009601960296039600681A4988422FD1D7
:101620001949886940F400708861886900F4007085
:101630000490886940F0040088618869694600F078
:10164000040004903F200090032001900F4800F018
:1016500017FA104C0E48C4E900068020C4E9026065
:1016600040002061800060612020A0610002E061F4
:10167000204600F08DF908B1FFF7B4FE2C626562D8
:1016800006B070BD00240140001002400008014077
:1016900008000240E40500202DE9F0478946044691
:1016A0003B4900683B4F0E1D9046884201D0B8422E
:1016B00007D1306810F4702F03D001252846BDE80B
:1016C000F08794F8240001280CD0012084F824002D
:1016D0002046FFF7CDFD05004FF0000004D084F850
:1016E0002400EBE70220EAE7A16A40F60162914399
:1016F00041F48071A1622168B94218D1326812F4B4
:10170000702F14D0A16A41F48011A162316849059B
:1017100005D5A16A21F4005141F48051A162A16A6A
:10172000C9040AD5E16A21F00601E16206E0A26A75
:1017300022F48012A2624968E9E7E06284F824009A
:10174000216A15488862216A1448C862216A1448CF
:10175000086321686FF0020008602068816841F426
:1017600080718160216843464A464C31206A00F00E
:101770003DF920688168C1F342410729816803D09F
:1017800041F48011816099E741F4A001FAE700007B
:101790000024014000280140FD11000865120008E6
:1017A0004B12000810B590F821100024022903D034
:1017B0000421816301243DE001680A6822F00E02E1
:1017C0000A6001680A6822F001020A601A4A016888
:1017D000914201D1012121E0174A1432914201D1F5
:1017E00010211BE0144A2832914201D1891515E0DD
:1017F000114A3C32914201D189140FE00E4A503215
:10180000914202D14FF4803108E00B4A6432914298
:1018100002D14FF4801101E04FF08071064A083A7E
:101820005160012180F82110002180F82010416BC7
:1018300001B18847204610BD080002402DE9F05F45
:10184000C16B0C6801680B68D0F840C0042202FA32
:101850000CF2494DDFF824A1494E4A4FDFF828B178
:10186000DFF828E122422CD05A072AD50A689206CE
:1018700003D40A6822F004020A600168A94201D177
:10188000042219E0514501D1402215E0B14202D1B4
:101890004FF4806210E0B94202D14FF480420BE075
:1018A000594502D14FF4802206E0714502D14FF430
:1018B000800201E04FF080622F4908394A60C16A16
:1018C0003BE04FF0020808FA0CF818EA040F4FF05A
:1018D00000094FF0010235D05FEA837832D50B68FA
:1018E0009B0605D40B6823F00A030B6080F82120C7
:1018F0000168A94201D1022219E0514501D12022FB
:1019000015E0B14202D14FF4007210E0B94202D1A9
:101910004FF400520BE0594502D14FF4003206E07B
:10192000714502D14FF4001201E04FF000721249EC
:1019300008394A6080F82090816A00291AD0BDE8F1
:10194000F05F0847082505FA0CF5254212D01B0761
:1019500010D50B6823F00E030B6090F84010C36B9A
:1019600002FA01F15960826380F8212080F820900A
:10197000016BE2E7BDE8F09F080002401C00024056
:101980003000024044000240580002406C00024017
:1019900030B528B308C8134914221944B1FBF2F139
:1019A0008900C16310498163022141771A6843F6B7
:1019B000F0718A43D0E900142143D0E902452C4359
:1019C000214304692143446921438469214311432C
:1019D000196000214163012242770177084630BD3A
:1019E000012030BDF8FFFDBF0000024070B5044685
:1019F00090F82000002501280CD0012084F8200058
:101A000094F821600020012E06D084F820000225E1
:101A1000284670BD022070BD022684F82160A063B4
:101A20002068066826F0010606602046FFF7C4FC21
:101A3000E06A00282068016802D041F00E0106E04B
:101A400021F0040101602068016841F00A01016091
:101A50002068016841F001010160D9E770B50446D2
:101A600000F004F90546601C02D0044800780444E4
:101A700000F0FCF8401BA042FAD370BDFC0100202E
:101A80002DE9F84FDFF8B891002409F1040A0AF1B2
:101A9000040B23460F270BF1040EC9E00125A540D6
:101AA0002A40AA427DD1674ED1F804C0ACEB0608AB
:101AB000B44532D014DCBCF1030F3AD009DCBCF1E0
:101AC000000F2AD0BCF1010F1CD0BCF1020F31D1A4
:101AD0001DE0BCF1110F17D0BCF1120F2AD119E093
:101AE000B8F5881F19D006DCB8F5803F15D0B8F5D9
:101AF000801F1FD111E0B8F5001F0ED0B8F5041FEC
:101B000018D10AE0CB6815E0CB681B1D12E0CB684A
:101B100008330FE0CB680C330CE08B682BB1012B42
:101B20004FF0080303D0456104E0042302E005619F
:101B300000E00023FF2A01D8064601E000F1040678
:101B40004FEA840501D9A5F12005D6F8008007FAEF
:101B500005FC28EA0C0803FA05F548EA0508C6F86A
:101B600000804D68ED0062D5374DAE6946F0010644
:101B7000AE61AD6924F0030605F001050095334D13
:101B800006EB050CDCF80850A607360F07FA06F836
:101B900025EA0805DFF8B880404503D14FF000087A
:101BA00017E044E0DFF8AC80404502D14FF0010877
:101BB0000FE0DFF8A480404502D14FF0020808E0B2
:101BC000DFF89880404502D14FF0030801E04FF064
:101BD000040808FA06F848EA0508CCF808804D68B9
:101BE000D9F80060ED034D4601D5164300E0964359
:101BF0002E604D68DAF80060AD03554601D51643F6
:101C000000E096432E604D68DBF80060ED025D4613
:101C100001D5164300E096432E604D68DEF8006063
:101C2000AD02754601D5164300E096432E60641C54
:101C30000D682A46E5407FF431AFBDE8F88F00001B
:101C4000000401400000111000100240000001409B
:101C500000080140000C0140001001400014014048
:101C60000AB1016170470904FBE700000148806880
:101C700070470000FC01002070B5040025D094F8E6
:101C80003D00002520B984F83C50204600F078FA49
:101C9000242084F83D002068016821F001010160E2
:101CA0002068016841F4004101602068016821F466
:101CB0000041016001F0E8F84D4A6168914201D8A5
:101CC0004C4900E04C49884201D2012070BD4B498B
:101CD0002368B0FBF1F15E6826F03F060E435E60BC
:101CE0006368934206D94FF4967359434FF47A735D
:101CF000B1FBF3F12368491C1E6A26F03F0631430D
:101D000019626168914210D84900401EB0FBF1F29F
:101D1000521CC2F30B02042A01D2042022E0B0FBC1
:101D2000F1F0401CC0F30B001CE0A268F2B301EB21
:101D3000C10303EB0116431EB3FBF6F35B1C43F434
:101D400080431B0549D092B301EBC10202EB0111A4
:101D5000401EB0FBF1F0401CC0F30B0040F480408B
:101D600040F400402168CA694CF6FF739A4310435F
:101D7000C861D4E9071001432068026822F0C0025C
:101D800011430160D4E9030101432068826848F2ED
:101D9000FF339A4311438160D4E905010843216868
:101DA000CA6822F0FF021043C86001E00EE016E0AE
:101DB0002068016841F0010101602564202084F859
:101DC0003D00256384F83E50002070BD01EB4106C4
:101DD000431EB3FBF6F35B1CB3E70120C2E701EB44
:101DE0004101401EB0FBF1F0401CC0F30B00B7E70F
:101DF000A086010080841E0000093D0040420F00C3
:101E00002DE9FF4F83B00025DDE910799A4693460E
:101E10000446DDF848800095FFF728FF064694F851
:101E20003D0020287CD119230122854920460096B7
:101E300002F0E4F80028F5D194F83C0001286FD0B6
:101E4000012084F83C0020680168C90703D10168BB
:101E500041F0010101602068016821F40061016026
:101E6000222084F83D00402084F83E00256467620B
:101E7000A4F82A90608D20857248E062CDE9008642
:101E800053465A462046049901F0C0FF00287DD1F0
:101E9000208DDFF8B491202768B1012814D00228E2
:101EA000206801681ED041F48061016020684169AA
:101EB00080690090B6E020684169816900910168FD
:101EC00041F400710160ADE02068016821F4806197
:101ED000016072B62068416981690091016841F42E
:101EE00000710AE041F40061016072B62068416946
:101EF00081690091016821F48061016062B691E01E
:101F0000032868D801280CD0022843464FF000026D
:101F10004946204600960FD002F070F8B0BB10E0A2
:101F20008BE032464146204602F0E7F870BB20685D
:101F30000069616A08706CE002F060F830BB72B64C
:101F400034E02068016821F48061016072B6206885
:101F50000069616A0870606A401C6062208D401EE2
:101F60002085608D401E6085384846F2A8110068C3
:101F7000B0FBF1F0C0EBC00000EB80000090401E11
:101F8000009008D020684069C04300E029E0400785
:101F90000CD50098F3E744F8305F6773A5732069A8
:101FA00040F02000206162B625731AE020680168C5
:101FB00041F40071016020680069616A0870606A1C
:101FC000401C6062218D491E2185618D491E6185FD
:101FD00062B621681BE032464146204602F08DF889
:101FE00018B1012007B0BDE8F08F20680069616A70
:101FF0000870606A401C6062218D491E2185618DD8
:10200000491E618521684A69D24352070AD4096989
:102010000170606A401C6062208D401E2085608DCA
:10202000401E6085208D00287FF46AAF84F83D70E3
:1020300084F83E5084F83C50D4E70220D2E70000F8
:10204000020010000000FFFF040001000802002051
:102050002DE9FF4F83B09A46DDE911979346044678
:10206000DDF84080FFF702FE054694F83D00202889
:102070007FD11923012240492046009501F0BEFF7F
:10208000002876D194F83C00012872D0012084F811
:102090003C0020680168C90703D1016841F00101D3
:1020A00001602068016821F400610160212084F84A
:1020B0003D00402084F83E0000262664C4F82480B9
:1020C000A4F82A90608D20852C48E062CDE9007547
:1020D00053465A462046049901F016FF70B930E085
:1020E0002A463946204602F03BF858B1206C0428B5
:1020F00004D12068016841F400710160012007B03B
:10210000BDE8F08F606A216800780861606A401C51
:102110006062218D491E89B22185628D521E6285C1
:1021200022685369DB435B070BD469B10078106107
:10213000606A401C6062208D401E2085608D401EBC
:102140006085208D0028CBD12A463946204601F0F3
:102150002FFF0028CAD154F83D0B016841F40071EB
:102160000160202004F81E09E67766770020C6E7A4
:10217000FFE70220C3E70000020010000000FFFF9D
:1021800010B586B000210091019102910391006881
:10219000104988421BD1104CA06940F00800A06192
:1021A000A069694600F0080004904FF44060009078
:1021B00012200190032003900848FFF761FCE069BA
:1021C00040F48000E061E06900F48000049006B013
:1021D00010BD00000058004000100240000C0140FB
:1021E000024881680278114481607047FC01002038
:1021F000074810B5016841F010010160032000F0AC
:1022000075F8002000F006F800F024F8002010BD5A
:102210000020024070B50D4D04464FF47A712878C5
:10222000B1FBF0F00A490968B1FBF0F001F0F5F9F3
:1022300048B9102C07D200222146501E00F036F873
:1022400000206C6070BD012070BD0000FC0100200A
:10225000080200200C4808B5816941F00101816144
:10226000816901F001010091C16941F08051C161B2
:10227000C06900F0805000900448416821F0E0619E
:1022800041F00071416008BD0010024000000140B3
:10229000002809DB00F01F02012191404009800065
:1022A00000F1E020C0F8001170470000F0B40E4BC0
:1022B0001B680C46C3F30223C3F10705042D00D9A4
:1022C0000425191D072901D2002300E0DB1E012689
:1022D00006FA05F1491E214099409E40761E16409F
:1022E0003143F0BC04F05EBD0CED00E0064900F0A7
:1022F000070208684FF6FF03184040EA0220034A2D
:1023000010430860704700000CED00E00000FA0583
:1023100010B50C0607D501F0070101EB810100EBB8
:10232000C100283005E001EB810100EBC10000F5A0
:10233000B47099B232B1012202730181190C41814A
:10234000002010BD00220273C180F9E7704701EB45
:10235000810200EBC202D0F8E802D26B03F0B9BCF4
:1023600001EB810200EBC202D0F8E802D2F87C2136
:1023700003F012BD70B504460B0601F0070000EB38
:10238000800104EBC1014FF001024FF0000503D5BD
:1023900081F82920283103E081F8695101F5B471F1
:1023A000087094F8A802012808D084F8A8222068B0
:1023B00004F032F984F8A852002070BD022070BDEC
:1023C00070B5044601F00F006268904201D9012007
:1023D00070BD0B0601F0070000EB800104EBC101AA
:1023E0004FF001024FF0000503D581F82920283174
:1023F00003E081F8695101F5B4718D70087094F8AB
:10240000A802012808D084F8A822206804F0A1F9C5
:1024100084F8A852002070BD022070BD2DE9F05F45
:1024200004685FEA424C0B788D69B4F850C04FF0F5
:1024300000064BF68F7948F2800A48F68F7B48F207
:10244000C00E4FF480672AD54FF0020808EBC3088E
:10245000C44407EB4C07E45BC4F30904A54203D36F
:102460002D1B8D6101D00BE08E61066836F823507C
:1024700005EA090585F4005545EA0A0526F82350C2
:10248000520609D50D78036833F8252002EA0B02BD
:1024900042EA0E0223F8252084B30A8929E04FF08E
:1024A000060808EBC308C44407EB4C07E45BC4F31D
:1024B0000904A54203D32D1B8D6101D00BE08E6171
:1024C000066836F8235005EA090585F4005545EA03
:1024D0000A0526F82350520609D40B78056835F80A
:1024E000232002EA0B0242EA0E0225F823202CB137
:1024F0004A8949690068234604F0FAFB2046BDE892
:10250000F09F2DE9F05F05460C4600685FEA426CDB
:1025100016462278A369B0F850C04FF0000148F683
:102520008F774CF280094FF6FF7B4FF4004E4FF44B
:10253000806A6CD54FF0020808EBC208E0440AEB51
:10254000480C30F80C00C0F30900834211D91B1A63
:10255000A3610FD0730407D52E6836F822303B40B4
:1025600043EA090326F8223094F82420012A08D0EF
:10257000C6E0A16111462846FFF7E9FE70046CD45D
:10258000BEE0626902446261E2690244E261236979
:10259000226A9A4202D31846111A03E084F82410E2
:1025A0000AB110462162617811B1012923D02BE0D4
:1025B0002968B1F850201144227801EB021101F290
:1025C000044148B13E280FD84208C30700D0521C2E
:1025D0000BEA82220A8017E00A8822F4F8420A8075
:1025E0000A8842F40042F5E74209C30600D1521EB0
:1025F0004EEA8222EEE72968B1F850201144227891
:1026000001EB0211A1F8040483B2228974E04FF0B7
:10261000060808EBC208E0440AEB480C30F80C004E
:10262000C0F30900834211D31B1AA3610FD07304B6
:1026300007D42E6836F822303B4043EA090326F8D7
:10264000223094F82420012A11D059E0A1611146CA
:102650002846FFF77CFE700452D42278296831F8AE
:102660002200384040EA090021F8220048E062696F
:1026700002446261E2690244E2612369226A9A4289
:1026800003D31846111A216204E00AB110462162F0
:1026900084F824106278296812B1012A22D029E036
:1026A000B1F850201144227801EB021101F20C41E3
:1026B00048B13E280FD84208C30700D0521C0BEA8D
:1026C00082220A8016E00A8822F4F8420A800A88E8
:1026D00042F40042F5E74209C30600D1521E4EEA19
:1026E0008222EEE7B1F850201144227801EB02116A
:1026F000A1F80C04628983B26169286804F016FBB2
:102700002278296831F8220048F6BF73184080F01B
:10271000300048F28003184321F822000020BDE871
:10272000F09F01F0070101EB810100EBC100D0F83F
:10273000840170472DE9F04104460F0601F00700BF
:1027400000EB800104EBC1014FF001064FF00005E2
:1027500003D581F82960283103E081F8695101F53A
:10276000B47108700A61CB704A7802B1C881022B3B
:1027700000D10D7194F8A802012809D084F8A8624C
:10278000206803F01BFE284684F8A852BDE8F081BB
:102790000220FBE770B50C4601F0070505EB85014B
:1027A00000EBC101C1E95F230022C1F8842181F857
:1027B000692181F8685101F5B4716207006804F07D
:1027C0001DF8002070BD70B504460D4601F00700ED
:1027D0006168884201D9012070BD29064FF00006CA
:1027E0004FF0010207D500EB800104EBC10181F835
:1027F0002920283107E005EB850104EBC10181F8B0
:10280000696101F5B4718A70087094F8A802012812
:1028100007D084F8A822206803F0D7FF680702D009
:1028200006E0022070BD04F52C71206803F08FFFD4
:1028300084F8A862002070BD70B50C4601F0070551
:1028400005EB850100EBC101C1E90F23012281F8ED
:102850004C208B6400234B6481F8292001F8285F09
:102860006207006803F0CAFF002070BD1FB5044670
:10287000006804F039FA000402D5204602F01EF880
:10288000206804F031FA40050CD5206830F8441F68
:1028900021F480610180204600F01EF900212046CD
:1028A00000F035F9206804F01FFA400405D52068CF
:1028B00030F8441F21F480410180206804F014FAAC
:1028C000800405D5206830F8441F21F400510180B0
:1028D000206804F009FAC00414D5206830F8401FBD
:1028E00021F004010180206830F8401F21F0080128
:1028F0000180204600F003F9206830F8441F21F4DD
:1029000080510180206804F0EFF900053ED522686F
:102910000020694632F8203021F81030401CC0B247
:102920000828F7D332F8400F40F0010010802068EB
:1029300030F8402F22F0010202802068B0F84420D5
:102940005205FBD530F8442F22F48062028000202B
:10295000236831F8102023F82020401CC0B208283A
:10296000F6D3206830F8401F41F00801018020684C
:1029700030F8441F21F400610180206830F8401FC6
:1029800041F004010180204600F0F6F8206804F0D0
:10299000ABF9800508D5206830F8441F21F4007198
:1029A0000180204600F0AFF8206804F09DF9C005D2
:1029B00005D5206830F8441F21F4807101801FBDC7
:1029C0002DE9F04186B0040004D094F8A902002556
:1029D00020B108E0012006B0BDE8F08184F8A852DB
:1029E000204600F05BF8032084F8A902206803F079
:1029F000A7FE04F11001142288466846FDF7A2FBE9
:102A000094E80F0003F006FE0226D0BB00212068E8
:102A100004F084F9002001270FE000BF00EB8001E3
:102A200004EBC10181F8297001F8280FC881CD702D
:102A30000D614D61401CC0B28D6161688142EDD86D
:102A4000002011E000EB800104EBC10181F8695125
:102A500081F8680181F86B51C1F87851C1F87C5157
:102A6000401CC0B2C1F8805161688142EAD814228A
:102A700041466846FDF766FB94E80F0003F057FEF9
:102A800010B184F8A962A5E784F8245084F8A972EB
:102A9000206803F04AFE00209DE7000008B50068AA
:102AA0000B49884212D10B48C16941F40001C16150
:102AB000C069002200F40000009011461420FFF7C6
:102AC000F5FBBDE808401420FFF7E2BB08BD00009D
:102AD000005C00400010024070B50446806801258B
:102AE000022801D0FEF77EFC2946D4F8E80203F064
:102AF0003CFAD4F8E802BDE8704003F0F8B9D0F829
:102B0000E80203F01CBAD0F8E80203F022BA10B5CC
:102B1000044690F8A80201280BD0012084F8A802EE
:102B200084F82410206804F0FBF8002084F8A80240
:102B300010BD022010BDD0F8E82200F52C7110461F
:102B400003F01FBA10B5044690F8A802012810D06F
:102B5000012084F8A802206804F0B7F8012120467B
:102B6000FFF7F4FB206803F0DEFD002084F8A802E4
:102B700010BD022010BD000010B50446D0F8E802D8
:102B800003F03EFAA069002804D00348016841F030
:102B90000601016010BD000010ED00E001490120B8
:102BA0000862704700000E4210B529A401461DCCF2
:102BB00086B08DE81D002AA02A4C006804900020F1
:102BC000012923D002293AD010291DD16168226839
:102BD000D20119D5C1F38342C9031DF8020009D5FA
:102BE000616804AAC1F34041515C1F4AB2FBF1F194
:102BF000484301E01D4948436168490204D440004C
:102C00005FF00301B0FBF1F006B010BD226AC2F321
:102C10000121012903D1920701D5C803F4E7022954
:102C200005D1626A920702D549F64040ECE70329D4
:102C3000EAD121688903E7D54FF22440E4E700F0A8
:102C400033F96168C1F38131491C4900DAE70000BA
:102C500002030405060708090A0B0C0D0E0F1010DD
:102C6000010200000010024000127A0000093D003D
:102C70002DE9F84305460078354CC00754D0E0698B
:102C80000026C00008D4E06940F08050E061E069AF
:102C9000012600F0805000902E480168C90512D42A
:102CA0000168804641F480710160FEF7DFFF07464E
:102CB00005E000BFFEF7DAFFC01B642823D8D8F870
:102CC0000000C005F6D5206A10F4407021D0A98814
:102CD00001F4407181421CD0206A1F49012220F476
:102CE00040700A6000220A602062C00711D0FEF71F
:102CF000BDFF074641F2883808E000BFFEF7B6FF87
:102D0000C11B414502D90320BDE8F883206A800732
:102D1000F4D5206A696820F44070084320621EB12F
:102D2000E06920F08050E0612878800705D5606870
:102D3000A96820F44040084360602878C00605D5A3
:102D40006068E96820F48000084360600020DBE7E9
:102D50000010024000700040400442422DE9F0475C
:102D60000F46050061D0434E306800F00700B842BE
:102D700009D2306820F0070038433060306800F036
:102D80000700B84251D128683B4C810712D5400753
:102D900003D5606840F4E06060602878000703D5E0
:102DA000606840F4605060606068A96820F0F000DE
:102DB000084360602878C00728D06868012810D0D0
:102DC0002168022810D0890700292EDA616821F0D5
:102DD000030101436160FEF749FF804641F28839F3
:102DE0000DE021688903EFE78901EDE7FEF73EFF7B
:102DF000A0EB0801494502D90320BDE8F0876068CF
:102E0000696800F00C00B0EB810FEFD1306800F082
:102E10000700B8420BD9306820F007003843306013
:102E2000306800F00700B84201D00120E5E72878BB
:102E3000400705D56068E96820F4E06008436060F9
:102E40002878000706D56068296920F4605040EAB8
:102E5000C100606000F038F86168084AC1F30311EE
:102E6000515CC8400649086006480068FFF7D2F97F
:102E70000020C2E700200240001002405C9B0008D6
:102E80000802002000020020044805490068496843
:102E9000044AC1F30221515CC84070470802002077
:102EA000001002406C9B000804480549006849680E
:102EB000044AC1F3C221515CC84070470802002097
:102EC000001002406C9B000812A185B00FC98DE86C
:102ED0000F0014A0144A006804905168134801F0D0
:102EE0000C03042B10D0082B0ED1C1F38343C9036C
:102EF0001DF803000AD5516804AAC1F34041515C92
:102F00000A4A5043B0FBF1F005B070470849484306
:102F1000FAE7000002030405060708090A0B0C0D76
:102F20000E0F1010010200000010024000127A0083
:102F300000093D002DE9F84F040070D02078C04D05
:102F4000C00749D06868C0F38100012807D06868CD
:102F5000C0F38100022809D16868C00306D528683B
:102F6000800339D560680028E7D035E06068B0F5A7
:102F7000803F0BD010B1B0F5A02F11D0286820F4FD
:102F800080302860286820F4802002E0286840F41F
:102F900080302860606890B1FEF768FE06460AE05F
:102FA000286840F480202860F0E700BFFEF75EFE4E
:102FB000801B642873D828688003F7D50CE0FEF7DF
:102FC00055FE064605E000BFFEF750FE801B642854
:102FD000F0D828688003F7D420789A4E80074FF005
:102FE00001094FF0000839D5686810F00C0F07D0C0
:102FF0006868C0F38100022809D16868C00306D45C
:103000002868800714D52069012808D110E02069BC
:10301000B0B1C6F80090FEF729FE074605E00AE1C8
:10302000FEF724FEC01B0228C4D828688007F7D505
:103030002868616920F0F80040EAC10028600DE0CE
:10304000C6F80080FEF712FE074604E0FEF70EFE0B
:10305000C01B022823D828688007F7D420780007EF
:103060002CD57948A169D9B1C0F80090FEF7FEFDD2
:10307000074604E0FEF7FAFDC01B02280FD8686A75
:103080008007F7D571484FF4FA510068B0FBF1F0B2
:10309000009000BF0098411E0091FAD20EE080E03F
:1030A000C0F80080FEF7E2FD074604E0FEF7DEFD13
:1030B000C01B022875D8686A8007F7D420784007BB
:1030C00060D5E8690027C00008D4E86940F0805066
:1030D000E861E869012700F0805000905C480168D1
:1030E000C90513D40168834641F480710160FEF77D
:1030F000BDFD824606E000BFFEF7B8FDA0EB0A006A
:1031000064284ED8DBF80000C005F5D5E06801283A
:103110000AD008B1052813D0286A20F001002862DF
:10312000286A20F0040002E0286A40F001002862CA
:10313000E06841F2883B98B1FEF798FD82460BE0CB
:10314000286A40F004002862EEE700BFFEF78EFD1B
:10315000A0EB0A0159455AD8286A8007F6D50CE039
:10316000FEF784FD824605E0FEF780FDA0EB0A0134
:1031700059454CD8286A8007F6D41FB1E86920F079
:103180008050E861E06988B36968C1F38101022970
:1031900044D00228C6F8608004D0FEF767FD0446DC
:1031A00038E034E0FEF762FD074604E0FEF75EFD1E
:1031B000C01B02282BD828688001F7D4206AB0F5FC
:1031C000803F05D16868A16820F40030084368603A
:1031D000D4E908010843696821F474110843686060
:1031E000C6F86090FEF742FD044606E025E000BF09
:1031F000FEF73CFD001B022809D828688001F7D59E
:103200001BE000BFFEF732FD001B022802D903209D
:10321000BDE8F88F28688001F4D40EE00128F7D0CB
:103220006868226A00F48031914204D1616A00F436
:103230007010884201D00120EAE70020E8E7000092
:103240000010024000004242800442420802002076
:1032500000700040024850F8210080B27047000022
:10326000006C0040024800EB810091B201607047A1
:10327000006C0040F8B505004FF0000016460C4603
:10328000009006D02CB100226946284600F019F8BB
:1032900008B10120F8BD287B2070E87BE070697BD5
:1032A0006170A97BA17056B101F090FCE07060786C
:1032B00001F08CFC6070A07801F088FCA070002008
:1032C000F8BD2DE9F04791460C465FEA00084AD068
:1032D00084B3D8F800004068400744D4404601F069
:1032E00013FD4FF461620546B0FBF2F1B0FBF2F35F
:1032F00002FB13503C23B0FBF3F0B5FBF2F6607019
:1033000002FB1650B0FBF3F203FB1200A070182969
:1033100031D31820B1FBF0F7B1FBF0F200FB121033
:103320002070404601F0E9FC411C04D0A84202D9BB
:10333000461B02E017E04FF0FF36A7EB071000EB4B
:103340004000C0EB001005EBC0152946404601F0D7
:103350002AFD40B9701C01D0711900E03146404689
:1033600001F00DFD10B10120BDE8F087394640465F
:1033700001F037FC00E02170B9F1000F0BD020788C
:1033800001F024FC2070607801F020FC6070A078CF
:1033900001F01CFCA0700020E6E7000070B50400FE
:1033A00003D0607C002610B105E0012070BD2674BA
:1033B000204600F043F802206074204600F010F927
:1033C000042578BB204601F063FC58BB20684168A7
:1033D00021F007014160A06820B11748016821F081
:1033E000010101601448001F0168A26821F46071A6
:1033F000114301606068411C04D10120FFF7D4FB38
:1034000080B1401E21688A6822F00F0242EA104211
:103410008A602168CA6860F30F02CA60204601F022
:1034200051FC08B16574C0E7E67301206073A073B6
:103430006074002070BD0000306C004008B500686A
:10344000084988420DD1FFF7A9FB0748C16941F03F
:103450000061C161C069054900F000600090012071
:10346000086008BD00280040001002403C044242B1
:103470002DE9F0410D4604003BD0C5B3207C012866
:103480003AD04FF0010884F8108002206074E87888
:1034900072B301F092FBE073687801F08EFB607309
:1034A000A87801F08AFBA073C2B2617BE07B01F0D7
:1034B0003BFC20732870204601F026FC4FF461612C
:1034C000B0FBF1F1002518292DD91822B1FBF2F13A
:1034D000A1EB011101EB4101C1EB011100EBC116A0
:1034E0003146204601F05FFC0427C8B90BE000E03C
:1034F00004E00120BDE8F0810220FBE7E07368787A
:103500006073A878CFE7204601F0F7FB411C0AD092
:10351000B04208D206490144204601F030FC10B107
:1035200067742574E5E784F8118025740020E1E7CD
:10353000805101002DE9F0410D46040024D01DB357
:10354000207C012823D04FF0010884F8108002204D
:1035500060742878EAB101F030FB4FF4616100FB40
:1035600001F6687801F029FBC0EB001006EB80063D
:10357000A87801F022FB35182946204601F013FCFB
:103580000026042710BB0FE00120BDE8F0810220D7
:10359000FBE74FF4616148436978C1EB011100EB2F
:1035A0008100A9784518E7E72068416821F0050106
:1035B0004160204601F0A1FB411C0AD0A84208D27C
:1035C00006490144204601F0DAFB10B16774267405
:1035D000DAE784F8118026740020D6E780510100D4
:1035E00070B504000AD02068416821F008014160EC
:1035F000FEF73CFB05464FF47A7608E0012070BDEB
:10360000FEF734FB401BB04201D9032070BD206897
:1036100040680007F4D5002070BD10B5401EB0F121
:10362000807F01D3012010BD4FF0E02460610F21A5
:10363000601703F0B7FB0020A06107202061002085
:1036400010BD10B590F83C20012A22D0012280F84C
:103650003C20CA688C6822F4407222434C6822F4F1
:10366000806222430C6822F4006222430C6922F437
:10367000805222434C6922F400522243C96900233C
:1036800022F480420A4301684A6480F83C300020FA
:1036900010BD022010BD000070B590F83C20012A3A
:1036A00026D0012480F83C40022280F83D200368A7
:1036B0005A689D6822F070060A6832435A600D4BC2
:1036C00002689A4208D0B2F1804F05D00A4B9A4264
:1036D00002D00A4B9A4204D1496825F0800319436D
:1036E000916080F83D40002180F83C10084670BD94
:1036F000022070BD002C0140000400400008004082
:1037000010B5040003D094F83D0010B107E001208B
:1037100010BD002084F83C00204600F01FF8022075
:1037200084F83D00211D206801F0FAFD012084F895
:10373000460084F83E0084F83F0084F8400084F896
:10374000410084F8420084F8430084F8440084F87F
:10375000450084F83D00002010BD000008B5006859
:103760000649884208D10648816941F400618161B7
:10377000806900F40060009008BD0000002C01404A
:103780000010024070B5044690F83C00012817D0A4
:10379000012584F83C50022084F83D0020688268AE
:1037A00022F0770222F47F4282600868502830D0ED
:1037B0000DDC20284DD005DC98B310283BD148E023
:1037C000022070BD302844D0402834D139E0602830
:1037D00028D0702806D0B0F5805F2CD0B0F5005FFF
:1037E00029D10AE0CB68D1E90121206801F0DBFD95
:1037F0002068816841F0770109E0CB68D1E90121B7
:10380000206801F0D0FD2068816841F4804181602A
:1038100011E0CA684968206801F07AFE50212068EA
:1038200007E016E0CA684968206801F082FE60215E
:10383000206801F0C2FD84F83D50002084F83C006F
:1038400070BDCA684968206801F062FE40212068A6
:10385000EFE7226801461046EBE7000000B585B0AF
:103860000021009101910291039100680B49884267
:1038700012D10B48816941F0040181618069694678
:1038800000F0040004904FF480700090022001903A
:1038900003900448FEF7F4F805B000BD002C014089
:1038A000001002400008014070B5044690F83C004A
:1038B0000D4601280AD0012084F83C0042B1042AB8
:1038C00018D0082A2AD00C2A4DD139E0022070BD28
:1038D000206801F07BFD2068816941F00801816169
:1038E0002068816921F004018161206881692A6969
:1038F000114311E0206801F091FD2068816941F4D5
:10390000006181612068816921F4806181612068A2
:1039100081692A6941EA0221816124E0206801F07D
:10392000A9FD2068C16941F00801C1612068C16931
:1039300021F00401C1612068C1692A69114311E0C5
:10394000206801F0C3FD2068C16941F40061C161D4
:103950002068C16921F48061C1612068C1692A6958
:1039600041EA0221C161002084F83C0070BD10B51D
:10397000040003D094F83D0010B107E0012010BD11
:10398000002084F83C00204600F01EF8022084F855
:103990003D00211D206801F0C3FC012084F8460091
:1039A00084F83E0084F83F0084F8400084F8410029
:1039B00084F8420084F8430084F8440084F8450009
:1039C00084F83D00002010BD7047000010B504468B
:1039D000022249B104290ED0082913D094F84100DD
:1039E000012816D0012010BD94F83E000128F9D11D
:1039F00084F83E200FE094F83F000128F2D184F8CB
:103A00003F2008E094F840000128EBD184F84020E2
:103A100001E084F841200122206801F0B7FC0F4941
:103A20002068884203D1426C42F40042426420681C
:103A3000884208D0B0F1804F05D00949884202D0B1
:103A40000849884204D1816801F00701062903D0A2
:103A5000016841F001010160002010BD002C01400F
:103A600000040040000800407047000070B5026884
:103A700004461068D168536910F00F0F52D003F05C
:103A8000010501F490762E435FD0C20705D0CA0528
:103A900003D5E26B42F00102E263420705D5DA0783
:103AA00003D0E26B42F00202E263820705D5DA0737
:103AB00003D0E26B42F00402E263020707D501F093
:103AC00020022A4303D0E26B42F00802E263E26B79
:103AD000002A33D0800604D5880602D5204601F09E
:103AE00050FD20684069E16BC0F38010090700D4E5
:103AF00028B3204601F037FD2068416949061AD5F0
:103B0000416921F040014161606BA0B12D494163E1
:103B1000606BFDF747FE002810D0606B416BBDE87D
:103B200070400847830610D58B060ED52046BDE8A9
:103B3000704001F026BD2046FFF796FF70BD20467D
:103B4000FFF792FF0020E06370BD03062BD50B0644
:103B500029D594F839002128F6D1A068B0F5805F06
:103B600001D12069B0B1206A411C2162216800782E
:103B70004860E08C401E0004000CE084E4D1206822
:103B8000C16821F08001C1602068C16841F0400136
:103B9000C16070BD206A0088C0F308005060206AD0
:103BA000801C2062E5E74006F3D54806F1D5D168D0
:103BB000204621F04001D160202184F8391000F026
:103BC00007F970BD5755000870B5040004D094F88B
:103BD0003900002510B106E0012070BD84F838508E
:103BE000204600F023F8242084F839002068C168BA
:103BF00021F40051C160204601F00AFD20680169EE
:103C000021F4904101612068416921F02A0141615C
:103C10002068C16841F40051C160E563202084F848
:103C2000390084F83A00002070BD000070B586B0FD
:103C300000250646009501950295039500682349E5
:103C4000884240D12249886940F48040886188696F
:103C500000F480400490886940F00400886188691D
:103C60001C4C00F0040004904815009002200190C4
:103C70000320039069462046FDF702FF2015CDE999
:103C80000005694620460295FDF7FAFE134C1248DE
:103C9000C4E900058020C4E9025020202561C4E960
:103CA00005500002E0612046FDF772FE08B1FDF705
:103CB00099FB74630022114625206662FEF7F6FA2E
:103CC0002520FEF7E5FA06B070BD0000003801407F
:103CD0000010024000080140580002402806002061
:103CE00090F83A30202B22D1F9B1F2B190F8383067
:103CF000012B1CD081628285C2850021C1632222F2
:103D000080F83A2080F838100168CA6842F480725E
:103D1000CA6001684A6942F001024A610068C168EC
:103D200041F02001C160002070470120704702204F
:103D30007047000010B512490068096888420BD12D
:103D4000104C21780D290ED00A290CD00C4AE078AD
:103D500040321154401CE070BDE810400122094976
:103D60000748FFF7BDBF064A07A14032A2F5CA7057
:103D700002F0F0FFE0782071012060700020EAE797
:103D8000D00400200401002025730A0D000000006B
:103D900090F83930202B18D1A9B1A2B190F8383061
:103DA000012B12D001628284C2840021C1632122CE
:103DB00080F8392080F838100068C16841F080012F
:103DC000C16000207047012070470220704700004A
:103DD000014901208870704704010020FEE7016856
:103DE0004A69D24352050FD46FF480624A610021C0
:103DF00040F8301F202242738173026942F00402AE
:103E00000261017301207047002070472DE9F84FCF
:103E10000446006889460B9D01689846174641F4A0
:103E2000806101602068016841F480710160009543
:103E30004FF0011B0022594620460A9B00F0DEF895
:103E40004FF4007A40B120680068C00501D5C4F87D
:103E500040A00320BDE8F88F216809F0FE0008614A
:103E60002B46284920460A9A00F0FCF8F0BB20684F
:103E70004169806900902A4620460A9900F070F94D
:103E800040B1206C04283AD12068016841F40071E7
:103E9000016034E0FEB2B8F1010F09D02168380AA0
:103EA00008612A4620460A9900F05AF90028E8D10C
:103EB000206806612A4620460A9900F051F9002838
:103EC000DFD12068016841F4807101600095002213
:103ED000594620460A9B00F091F80028B3D121688A
:103EE00009F0FF0040F00100086100E007E02B4608
:103EF000044920460A9A00F0B5F80028AAD001200B
:103F0000A8E70000020001002DE9F843044600681C
:103F10000D46DDE9089701689846164641F4807120
:103F200001604B4600224FF001112046009700F03F
:103F300065F848B120680068C00502D54FF40070EC
:103F400020640320BDE8F883216805F0FE000861C5
:103F50003B464A461549204600F084F888B9206857
:103F60004169806900903A464946204600F0F8F8D9
:103F700048B1206C042804D12068016841F4007124
:103F800001600120DEE7F5B2B8F1010F09D0216828
:103F9000300A08613A464946204600F0E1F8002818
:103FA000E7D1206805610020CCE700000200010095
:103FB00070B516460D4604460DE02046FFF70FFF8C
:103FC00008B1012070BD681C05D0FDF74FFE801BB5
:103FD000A84207D835B120684069C0434007ECD4F7
:103FE000002070BD002044F8300F20216173A073C1
:103FF000216941F0200121612073E2E72DE9F047BA
:104000001E4690460D460446C1F30747DDF8209052
:1040100008E0701C06D0FDF729FEA0EB0900B042B5
:104020000FD876B12068012F18D0806925EA0000EA
:104030000004000C14D000214145EAD00020BDE866
:10404000F087002044F8300F20216173A0732169AC
:1040500041F02001216120730120F0E74069E5E78C
:104060000121E9E72DE9F0479A4691460E460446BC
:1040700000254FF02008C1F3074725E0206840697C
:10408000C043400514D42068016841F40071016008
:1040900021686FF480604861256384F83D8084F86E
:1040A0003E50206C40F00400206484F83C501FE037
:1040B000B9F1FF3F08D0FDF7D9FDA0EB0A01494552
:1040C0000CD8B9F1000F09D02068012F13D08069F6
:1040D00026EA00000004000C0BD0CFE744F8305F64
:1040E00084F80D80A573206940F0200020612573BD
:1040F0000120BDE8F0874069EAE72DE9F04100259D
:1041000090460E460446202717E04069C043C0068B
:104110000CD454F8301B6FF01000486144F810596B
:104120006777A577206A2062257717E0FDF79EFD67
:10413000A0EB0800B04208D83EB120684169C943ED
:104140004906E2D40020BDE8F08144F8305F67738F
:10415000A573206940F02000206125730120F2E75B
:1041600070B516460D4604460DE02046FFF737FEB3
:1041700008B1012070BD681C05D0FDF777FD801BDC
:10418000A84207D835B120684069C0430006ECD486
:10419000002070BD002044F8300F20216173A0730F
:1041A000216941F0200121612073E2E7F0B500238D
:1041B0000A24302537261F4611E000BFB4EB107FDC
:1041C00002D905EB107C01E006EB107C01F813C06E
:1041D00001EB430C00015B1C8CF80170DBB29342D5
:1041E000ECD3F0BD10B5012000F098F8BDE8104008
:1041F0000120FDF733BC000070B50122094D140207
:1042000021462846FDF72CFD0120FDF727FC002262
:1042100021462846FDF724FDBDE870400120FDF74A
:104220001DBC0000000C014041B1012908D0022949
:1042300008D0D4210844C0B200F070B88021F9E75A
:10424000C021F7E79421F5E710B5002000F046F80B
:1042500000224FF400710F48FDF702FD032000F02B
:104260003DF8FFF7C9FFFFF7C7FFFFF7C5FF0220C3
:1042700000F034F8FFF7C0FF282000F04FF80C20C2
:1042800000F04CF8062000F049F8BDE8104001208D
:1042900000F044B8000C014070B50122084D0646FC
:1042A000540221462846FDF7DBFC304600F036F884
:1042B00021462846BDE870400022FDF7D1BC000031
:1042C000000C014010B5044603E000BFFFF7E4FF17
:1042D000641C20780028F9D110BD000070B50E4D87
:1042E000044600F0010280212846FDF7B9FCC4F322
:1042F000400240212846FDF7B3FCC4F38002202190
:104300002846FDF7ADFCC4F3C0022846BDE8704066
:104310001021FDF7A5BC0000000C014010B50446BB
:104320000009FFF7DBFFFFF767FF2046FFF7D6FF27
:10433000BDE81040FFF760BF2DE9F0472E4C0F4657
:104340008146E169FBF7B9FFE062804606463846E0
:10435000216AFBF7B2FF0546206339464846FBF762
:10436000B2FFA063616AFBF7A8FF606316F0FF4F1E
:1043700087F000400DD04946FBF7D7FF064641467F
:104380002846FBF7D2FF3146FCF778FA18D1A06A2D
:104390000FE0194815F0FF4F806A0AD01649B5F5AD
:1043A000000F496903DB00BFFBF735FF01E0FBF7B6
:1043B00084FFA061E168FCF76BFA0DD2E06813E0BE
:1043C000D4E90B103546FBF7B0FF2946FCF760FA3D
:1043D0006169A06AEBD3E7E72169A069FCF74EFAAF
:1043E00001D3A06901E02069A061A062C4E9079738
:1043F000A16B6162BDE8F087C80000202DE9F041A3
:10440000104C0D460646A16820688846FBF78DFFD4
:104410004FF07E573946FBF753FFE0604146606836
:10442000FBF783FF3946FBF74BFF2061A061A062D9
:10443000C4E9076529463046FBF745FFA063606283
:10444000BDE8F081C8000020F0B585B0012504A8C2
:10445000CDE9000564242B467522D02102941C4826
:10446000FDF7CEFC9DF8100068282ED1002703AE82
:104470008DF80C700096CDE9015401236B22D021F8
:104480001348FDF7E5FD07208DF80C000096CDE9F7
:10449000015401231922D0210D48FDF7D9FD8DF8D3
:1044A0000C700096CDE9015401231C22D02108484C
:1044B000FDF7CEFD8DF80C700096CDE90154012377
:1044C0001B22D0210248FDF7C3FD05B0F0BD00005E
:1044D0002803002010B586B06422062103A88DE8C9
:1044E000070001233B22D0210E48FDF789FCBDF8CF
:1044F0000C0040BA00B2FCF7F8F80B4CC4E902011A
:10450000BDF80E0040BA00B2FCF7EFF8C4E90401B0
:10451000BDF8100040BA00B2FCF7E7F8C4E90601A4
:1045200006B010BD280300201000002010B586B092
:104530006422062103A88DE8070001234322D0212D
:104540000E48FDF75DFCBDF80C0040BA00B2FCF768
:10455000CCF80B4CC4E90801BDF80E0040BA00B21B
:10456000FCF7C3F8C4E90A01BDF8100040BA00B274
:10457000FCF7BBF8C4E90C0106B010BD280300200D
:1045800010000020FEB500241F48009401941D492E
:104590000294016089158160012505730475062662
:1045A00006614FF460214460C161FCF79FFFCDE9D3
:1045B0000045694614480294FCF716FF0224CDE931
:1045C000005469461048FCF70FFF00940324694625
:1045D0000D480194FCF708FF0094042469460A483A
:1045E0000194FCF701FF00940524694606480194F4
:1045F000FCF7FAFECDE9004669460348FCF7F4FEF5
:10460000FEBD000000240140440400202DE9F047D5
:1046100086B0002431480094019402940394816987
:1046200041F010018161816901F0100104918169FB
:1046300041F020018161816901F0200104918169CB
:1046400041F004018161816901F0040104918169F3
:1046500041F0080181618069DFF884A000F0080062
:1046600004900022C0215046FDF7FAFADFF874905A
:1046700040F2F338002241464846FDF7F1FA4FF484
:1046800000500325CDE9000569461748FDF7F8F904
:10469000C02001260227CDE90006CDE90247694680
:1046A0005046FDF7EDF9CDF800800397CDE90164A0
:1046B00069464846FDF7E4F94FF20C00CDE90005E4
:1046C00069464846FDF7DCF9F003CDE90005694687
:1046D0005046FDF7D5F906B0BDE8F087001002405E
:1046E00000080140000C0140001001400948084941
:1046F0004FF4804201600849416000218160C0E9B7
:10470000031241618161C1610162FDF7B5BA000028
:104710000058004028030020A08601007CB500243A
:1047200025480194234900940160611E41604FF4C3
:1047300080718160FEF732FE01211F48FEF78AFD7D
:1047400043F2F225A84221D00C208DF804008DF808
:1047500005408DF80640002201A91748FEF7EAFE41
:1047600005208DF8000001208DF801008DF8020071
:1047700015208DF80300002269460F48FEF778FEE9
:104780002A4601210C48FEF76DFD7CBD0B480068F0
:104790000A49091F0968002240EA01400090694661
:1047A0000548FEF765FE002201A90348FEF789FDD2
:1047B0007CBD000000280040740400200C6C004008
:1047C00010B596B000240F94109411941294139481
:1047D0001C2108A81494FBF7CEFC20216846FBF7A7
:1047E000CAFC1F481D49C0E9001440F29F51C0E9AE
:1047F0000241046144618461FEF782FF4FF48050FE
:104800000F900FA91648FEF7BDFF1548FFF7AFF848
:10481000139413A912481494FEF73EFF6020CDE9CB
:1048200008040A940B940C940D94002208A90C48D7
:104830000E94FFF739F800944FF40050CDE904408E
:10484000029401940394694605480794FEF7F9FE23
:104850000348FFF703F816B010BD0000002C01401C
:104860008804002010B500220F49104801F00AFA10
:1048700008B1FCF7B7FD0E490C4801F0E7FB08B1A1
:10488000FCF7B0FD0B49094801F008F808B1FCF746
:10489000A9FD064801F030FC002803D0BDE8104017
:1048A000FCF7A0BD10BD0000940100206C060020A4
:1048B000E8020020EC010020FEE770472DE9F84FE8
:1048C000044640F68F7B48F60F7A4FF002094FF40A
:1048D000806868E1B0F8441011F00F0638D030F865
:1048E000267039047ED530F8261001EA0B0141F01C
:1048F000800120F8261006EB860004EBC00595F831
:10490000740105F5B47500286DD0E87802286BD0E5
:104910002A78216831F8220048F68F73184048F24F
:10492000C003184321F822002978206830F821209C
:10493000B0F8503052047DD509EBC1015A1808EB8C
:104940004201415A8905890D009174D02A89D2E02B
:10495000C9062DD4018801EA0A0141F40041018011
:10496000206804F12805B0F850302A7809EBC2011C
:104970005A1808EB4201405AC0F309006064E16B29
:104980000844E06300212046FDF7E1FC94F8240090
:1049900000289ED0A86900289BD194F8240040F0FC
:1049A00080012068A0F84C10002084F82400FAE070
:1049B000018804F5B4750A0521D5B0F850302A787D
:1049C000062101EBC2015A1808EB4201405A04F5D6
:1049D0002C71C0F30903EB61EA88206802F088F9C2
:1049E000216802E0A2E062E072E0088800EA0B00C1
:1049F00040F0800008802046FEF79DF8D3E00904CF
:104A0000D5D5018801EA0B0141F0800101802068C1
:104A1000B0F850202B78062101EBC3010A4408EBC3
:104A20004201405A83059B0DEB6110D0696971B159
:104A3000EA8801E053E051E0206802F059F9E969A1
:104A400068690844686100212046FDF789FC2068F8
:104A5000B0F850100844296900F20C4051B13E29C9
:104A600010D84A08C90700D0521C4FF6FF7101EA5E
:104A700082210FE0018821F4F8410180018841F48E
:104A8000004107E04A09C90600D1521E4FF4004117
:104A900041EA82210180206801884BF68F72114023
:104AA00081F4405148F28002114301807BE020688C
:104AB000B0F850102A78062303EBC2020A4408EB30
:104AC0004201415A8905890D009118D0EA8812E007
:104AD0003A4629462046FDF7A1FC00900FE0062249
:104AE00002EBC1015A1808EB4201415A8905890DB0
:104AF000009104D06A896969009B02F0F9F8E969BC
:104B000000980844E8616969009808446861A869E8
:104B100018B129690098814204D929782046FDF707
:104B20001FFC03E02946206801F068FE38063AD5EC
:104B3000226806EB860004EBC00132F8260000EA8A
:104B40000A0040F4004022F8260091F82B0028319A
:104B5000022801D1F80522D42268B2F850300D782D
:104B600009EBC500034408EB4300105A8A69C0F3FF
:104B7000090082420CD9121A8A610BD04A69024498
:104B80004A61CA691044C861206801F037FE0AE032
:104B900000208861E9B22046FDF7D9FB03E03A46E0
:104BA0002046FDF7AEFC2068B0F8441009043FF53C
:104BB00091AE0020BDE8F88F7047010901EB81013B
:104BC00000F00F0000EB4100C0B27047002102E08E
:104BD0000A38C0B2491C0A28FAD2090740EA116013
:104BE00070472DE9F04104460025C07B627BA37B22
:104BF00042E0012A16D0032A14D0052A12D0072A2F
:104C000010D0082A0ED00A2A0CD00C2A0AD0042A66
:104C100010D0062A0ED0092A0CD00B2A0AD0022A5C
:104C20000DD028E01F2B0CD30C2A05D101221346EE
:104C3000401C20E01E2B04D30123521C1BE01C2B24
:104C400002D203F1010316E011D183B29E0710D105
:104C50006426B3FBF6F706FB173636B94FF4C87671
:104C6000B3FBF6F706FB17331BB91D2303E01D2B1F
:104C700001D1032201236D1C8D42BAD3D1B2E0735E
:104C80006173DAB2A27300F04FF82073BDE8F081CF
:104C900070B50446FCF7EAFF05464FF47A7606E065
:104CA000FCF7E4FF401BB04201D9032070BD20682F
:104CB00040688006F4D52068416841F010014160E9
:104CC000002070BD70B504460068416821F01001F5
:104CD0004160FCF7CBFF05464FF47A7607E000BF52
:104CE000FCF7C4FF401BB04201D9032070BD20680F
:104CF00040688006F4D5002070BD0168086A496AE2
:104D000089B241EA00407047006881698AB2C1698E
:104D10008BB2816989B28A4203D0C06961F31F40B6
:104D2000704743EA02407047F0B56424C1EBC10309
:104D30000927A500072603EB01130329B3FBF7F1AD
:104D400000F5FA60114401440AD2401EB0FBF4F2AF
:104D500001EB9001B0FBF5F0891A0844001D08E052
:104D6000B0FBF4F201EB9001B0FBF5F0891A0844B6
:104D7000801CB0FBF6F106FB1100C0B2F0BD70B5AF
:104D80000D4606460024FFF783FF48B93168280C1A
:104D900008623168A8B248623046FFF793FF00B15D
:104DA0000124204670BD70B50D4606460024FFF76D
:104DB0006FFF48B93168280C88613168A8B2C861B2
:104DC0003046FFF77FFF00B10124204670BD000090
:104DD0002DE9F34FFE48FF4C8FB0007801287DD1BC
:104DE000FD48FBF7D3F981B2FB48FCF7BBFAFBA106
:104DF000F94803F0F0FB054600680F99FBF7CDF981
:104E0000002821D168681099FBF7C7F90028F8D16C
:104E1000F3A1A868FBF7C1F9B8B1F2A1A868FBF744
:104E2000BCF9E0B3F0A1A868FBF7B7F9002868D097
:104E3000EEA1A868FBF7B1F9002873D0ECA1A8682F
:104E4000FBF7ABF9002872D0BDE0E868FBF7D6F9B4
:104E500060712869FBF7D2F9A0716869FBF7CEF998
:104E6000E071A869FBF7CAF92072E869FBF7C6F997
:104E70006072286AFBF7C2F9D649A0721631E2794E
:104E80008A70A2794A7062790A706231227A8A70D5
:104E9000627A4A70C87000226239D64800E008E0A1
:104EA000FEF748FBCB4900227831D248FEF7E0FA02
:104EB00089E0E86803F07AFBFBF7C4FCE06128694D
:104EC00003F074FBFBF7BEFC2062FBF778FC0546A1
:104ED0000E46E069FBF773FC024600E076E0CDE9A0
:104EE00000560B46C4A1C84801F034FF0121002040
:104EF000FFF79AF9C448FFF7E5F96420FCF7AEFD27
:104F000061E0C2486064E868FBF778F920732869BB
:104F100003F04CFBFBF796FCFBF705FCA06352E0AB
:104F200000E004E0E868FBF769F960734BE0E868CB
:104F3000FBF764F9B749A0730022D1E90001B44B33
:104F4000FBF73DFAA34D824680358B46E868FBF7B8
:104F500036FC80468946A868FBF731FC06460F46BA
:104F60006868FBF72CFCCDE900012868FBF727FCFB
:104F700002900D46E06FFBF722FC024608A80B46A4
:104F800080E8C00FDDE90001CDE906010298059532
:104F90000292CDE9033096A00090DDE90F239EA197
:104FA000A94801F0D7FEA848FBF7F0F881B2A6485F
:104FB000FCF7D8F9A448FBF7E9F882B28D48A2497A
:104FC0005C30FEF7E5FE8249002008706078012819
:104FD0007DD18848F838FBF7D9F881B28548F83890
:104FE000FCF7C0F983487DA1F83803F0F4FA0546D0
:104FF00000680F99FBF7D1F8002821D16868109953
:10500000FBF7CBF80028F8D175A1A868FBF7C5F825
:10501000B8B174A1A868FBF7C0F8E0B372A1A868A2
:10502000FBF7BBF8002868D070A1A868FBF7B5F8BB
:10503000002873D06EA1A868FBF7AFF8002872D0E3
:10504000C3E0E868FBF7DAF860712869FBF7D6F887
:10505000A0716869FBF7D2F8E071A869FBF7CEF898
:105060002072E869FBF7CAF86072286AFBF7C6F895
:105070005849A0721631E2798A70A2794A70627931
:105080000A706231227A8A70627A4A70C87000228D
:105090006239584800E008E0FEF74CFA4D4900221A
:1050A00078315448FEF7E4F98FE0E86803F07EFABF
:1050B000FBF7C8FBE061286903F078FAFBF7C2FB55
:1050C0002062FBF77CFB05460E46E06900E07EE0CF
:1050D000FBF775FBCDE9005602460B465BA14A483B
:1050E00001F038FE01210020FFF79EF84648FFF747
:1050F000E9F86420FCF7B2FC67E044486064E868C3
:10510000FBF77CF82073286903F050FAFBF79AFB51
:10511000FBF709FBA06358E000E004E0E868FBF758
:105120006DF8607351E0E868FBF768F83949A073DF
:105130000022D1E90001364BFBF741F9254D0490DF
:1051400080358B46E868FBF73AFB02908A46A868F0
:10515000FBF735FB804600916868FBF730FB814622
:105160000F462868FBF72BFB05460E46E06FFBF762
:1051700026FB02460498CDE90C0B0298CDE90A0AF9
:10518000009B1BA00090079703A8029280E8620290
:10519000CDE908831748DDE90F231FA1943801F0FA
:1051A000D9FD14489438FAF7F1FF81B211489438C8
:1051B000FCF7D8F80F489438FAF7E8FF0D4982B2A7
:1051C000943901F1F000FEF7E3FD0020607045E046
:1051D000E5010020040100203C1000207C000000BC
:1051E00030000000310000003200000034000000F8
:1051F00033000000740400202520332E33662D2553
:10520000332E33662020200074050020000080BF6C
:10521000008056407000002025737C25737C257328
:105220007C252E32667C252E32667C252E32667CCD
:1052300025302E32667C25302E32667C25302E308D
:10524000667C0A0D00000000A02000202025332EDF
:1052500033662D25332E33662020200011B0BDE8A3
:10526000F08F7047FCF7BCBF30B593B0282168467B
:10527000FAF781FF14210AA8FAF77DFF0024012123
:105280000F941194052012940090CDE902411094DE
:105290004FF48030019002250491CDE907504FF47E
:1052A000E01009906846FDF745FE0F20CDE90A059C
:1052B0006802CDE90C4002210AA80E94FDF74EFDCC
:1052C00013200F90E8011090C001CDE911040FA840
:1052D000FDF7CEFC13B030BD0D48016841F001016F
:1052E000016041680B4A1140416001680A4A11405F
:1052F0000160016821F480210160416821F4FE0110
:1053000041604FF41F0181600449C0030860704789
:10531000001002400000FFF8FFFFF6FE08ED00E07D
:10532000F0B50268164B174C174D4FF08047984266
:1053300005D0B84203D0A04201D0A84203D122F048
:1053400070064A683243984205D0B84203D0A04262
:1053500001D0A84203D122F44074CA6822434C69A8
:1053600022F08002224302608A68C2620A68826276
:10537000984201D10969016301214161F0BD00003A
:10538000002C0140000400400008004010B501F06E
:105390001F030121046A99408C430462016A9A4008
:1053A0001143016210BD10B5846842EA032224F45F
:1053B0007F440A432243826010BD826822F070025B
:1053C0000A4342F0070181607047000030B5026A6D
:1053D00022F001020262026A4368846924F07305C4
:1053E0000C682C4322F002058A682A430A4DA84221
:1053F0000BD122F00805CA6823F440732A434D6993
:1054000022F004021D438B692B4343608461496889
:105410004163026230BD0000002C014030B5026AD9
:1054200022F010020262026A436884690D6824F463
:10543000E64444EA05248D6822F0200242EA05127F
:105440000B4DA8420ED1CD6822F0800242EA05122F
:105450004D6923F4406343EA85038D6922F04002DD
:1054600043EA85034360846149688163026230BD19
:10547000002C014030B5026A22F480720262036A95
:105480004268C46923F4007324F073050C682C434C
:105490008D6843EA05230C4DA8420ED1CD6823F454
:1054A000006343EA05234D6922F4405242EA0512A3
:1054B0008D6923F4806342EA05124260C461496841
:1054C000C163036230BD0000002C014030B5026AA8
:1054D00022F480520262046A4268C3690D6823F4B0
:1054E000E64343EA05238D6824F4005444EA053476
:1054F000064DA84204D14D6922F4804242EA851249
:105500004260C36149680164046230BD002C0140FF
:1055100010B5036A046A24F001040462846924F06B
:10552000F00444EA021423F00A020A43846102628E
:1055300010BD10B5036A23F0100303628369046A87
:1055400023F4704343EA023224F0A00343EA01113A
:105550008261016210BD10B5406A0021C185C1841D
:10556000FEF782FA10BD0168CA6822F49072CA6020
:1055700001684A6922F001024A61202180F83A104C
:10558000704710B590F83A10222901D0022010BDC2
:1055900082684FF480539A4201D1016921B1816A36
:1055A0009A421BD04AB10AE00268816A5268C2F38B
:1055B00008020A80816A891C08E0026972B10268E7
:1055C000526802F07F020A70816A491C8162C18DB3
:1055D000491E0904090CC18503D016E0026852680F
:1055E000F1E70168CA6822F02002CA600168CA684F
:1055F00022F48072CA6001684A6922F001024A619D
:10560000202180F83A10FEF795FB002010BD000025
:1056100070B5044600680169E26821F44051114305
:1056200001612169A0680843616908432168CA686B
:1056300041F20C639A430243CA6020684169A2693F
:1056400021F44071114341611E492068884202D112
:10565000FDF72AFC01E0FDF717FC00EBC00101EBB0
:105660000012606864218000B2FBF0F3B3FBF1F339
:105670006FF018067343B2FBF0F5B2FBF0F605EBE2
:105680008305322303EB0515B5FBF1F5B6FBF1F607
:1056900005F0F00505EB0615B2FBF0F6B2FBF0F0F5
:1056A000B0FBF1F06FF01802504306EB800003EB03
:1056B0000010B0FBF1F0216800F00F002844886072
:1056C00070BD0000003801400148FEF7CFB900006E
:1056D000D00400202DE9F041D0F8C032D0F8B82233
:1056E000CAB101EB810500EB85040026E7693FB1F3
:1056F00003EBC5039B6BB7FBF3F503FB157323B1FA
:10570000C2F814620020BDE8F08100231A46E66169
:1057100000F07FFCF6E70220F5E770B50546D0F80B
:10572000B84200F07AFBC4F80C02D5F8B80248B1D0
:10573000D5F8BC12D4F80402CA6804F50371904786
:10574000002070BD022070BD70B504460026812186
:1057500000F0B6FA002501212046E56200F0B0FA1B
:1057600082212046C4F86C5100F0AAFA2564D4F8CE
:10577000B80248B1D4F8BC0204F52E7440688047E2
:10578000206800F016FE2560304670BD10B5D0E9E7
:10579000AE4159B194F80002FF2807D08B6894F805
:1057A000012221469847FF2084F80002002010BD06
:1057B0000A21018000487047100200204321018027
:1057C0000048704760020020432101800048704774
:1057D0001C0200204321018000487047A4020020E1
:1057E0002DE9F04104460026007C4FF400770125A6
:1057F00090B3402302228121204600F063FB402326
:10580000E56202220121204600F05CFB082303220E
:1058100082212046C4F86C5100F054FB4FF407700D
:10582000256400F0C7FDC4F8B802F8B10546D4F805
:10583000BC02006880470020C5F81402C5F81802B1
:10584000207CD5F8042298B140230121204600F0A5
:1058500045FB3046BDE8F081FFE73B46022281214F
:10586000204600F02FFB3B46E562CAE70126F0E741
:105870003B46EAE710B5D0F8B81269B1027C002ABD
:10588000D1F8042205D04023012100F027FB00209D
:1058900010BD4FF40073F7E7022010BD024602204E
:1058A000002902D00020C2F8BC127047D0F8B8021C
:1058B000C0F8041200207047D0F8B802C0F81022D7
:1058C000C0F80812002070472DE9FC410546D0F8C9
:1058D000B87200208DF80000ADF804000646087884
:1058E0000C4610F0600121D020293BD1E288AAB1FA
:1058F0000006607807D5D5F8BC128B683946984702
:10590000E288394626E087F80002A07987F801028C
:10591000E2883946284600F06AF828E0D5F8BC123B
:10592000607800228B682146984720E0607820B19B
:105930000A2809D00B2815D110E095F89C020328FD
:1059400010D1022201A905E095F89C02032809D193
:1059500001226946284600F064F808E095F89C02A8
:10596000032804D02146284600F036F802263046A7
:10597000BDE8FC8110B5D0F8B812A1B1D1F814225D
:105980000AB1012010BD0122C1F81422D1F8102261
:105990000263B1F8102293B2D1F80822812100F0FD
:1059A00038FB002010BD022010BD10B5D0F8B42285
:1059B00052689047002010BD134610B50A460021DA
:1059C00000F08CFA002010BD134610B50A460021E5
:1059D00000F01FFB002010BD10B50446802100F030
:1059E000FDFA2046BDE81040002100F0F7BA10B5DE
:1059F0000323C0F85C21C0F89432C0F8602113463C
:105A00000A46002100F06AFA002010BD10B50521F9
:105A10000023C0F894121A46194600F05FFA0020DD
:105A200010BD10B50223C261C0F894320262134661
:105A30000A46002100F0EDFA002010BD10B5042147
:105A40000023C0F894121A46194600F0E2FA00202A
:105A500010BD000010B50A46024903A000F0E2F8AC
:105A6000004810BD3C0E002043444320436F6E6647
:105A7000696700001220088000487047B4010020C8
:105A800010B50A46024903A000F0CCF8004810BD4A
:105A90003C0E002043444320496E74657266616386
:105AA000650000000420088000487047B001002015
:105AB00010B50A46024903A000F0B4F8004810BD32
:105AC0003C0E002053544D6963726F656C656374BE
:105AD000726F6E696373000010B50A46024903A035
